{
  "_format": "hh-sol-artifact-1",
  "contractName": "Macpost",
  "sourceName": "contracts/Macpost.sol",
  "abi": [
    {
      "inputs": [],
      "stateMutability": "nonpayable",
      "type": "constructor"
    },
    {
      "anonymous": false,
      "inputs": [
        {
          "indexed": true,
          "internalType": "address",
          "name": "owner",
          "type": "address"
        },
        {
          "indexed": true,
          "internalType": "address",
          "name": "approved",
          "type": "address"
        },
        {
          "indexed": true,
          "internalType": "uint256",
          "name": "tokenId",
          "type": "uint256"
        }
      ],
      "name": "Approval",
      "type": "event"
    },
    {
      "anonymous": false,
      "inputs": [
        {
          "indexed": true,
          "internalType": "address",
          "name": "owner",
          "type": "address"
        },
        {
          "indexed": true,
          "internalType": "address",
          "name": "operator",
          "type": "address"
        },
        {
          "indexed": false,
          "internalType": "bool",
          "name": "approved",
          "type": "bool"
        }
      ],
      "name": "ApprovalForAll",
      "type": "event"
    },
    {
      "anonymous": false,
      "inputs": [
        {
          "indexed": false,
          "internalType": "uint256",
          "name": "id",
          "type": "uint256"
        },
        {
          "indexed": false,
          "internalType": "string",
          "name": "hash",
          "type": "string"
        },
        {
          "indexed": false,
          "internalType": "string",
          "name": "ihash",
          "type": "string"
        },
        {
          "indexed": false,
          "internalType": "uint256",
          "name": "tipAmount",
          "type": "uint256"
        },
        {
          "indexed": false,
          "internalType": "address payable",
          "name": "author",
          "type": "address"
        }
      ],
      "name": "PostCreated",
      "type": "event"
    },
    {
      "anonymous": false,
      "inputs": [
        {
          "indexed": false,
          "internalType": "uint256",
          "name": "id",
          "type": "uint256"
        },
        {
          "indexed": false,
          "internalType": "string",
          "name": "hash",
          "type": "string"
        },
        {
          "indexed": false,
          "internalType": "string",
          "name": "ihash",
          "type": "string"
        },
        {
          "indexed": false,
          "internalType": "uint256",
          "name": "tipAmount",
          "type": "uint256"
        },
        {
          "indexed": false,
          "internalType": "address payable",
          "name": "author",
          "type": "address"
        }
      ],
      "name": "PostTipped",
      "type": "event"
    },
    {
      "anonymous": false,
      "inputs": [
        {
          "indexed": true,
          "internalType": "address",
          "name": "from",
          "type": "address"
        },
        {
          "indexed": true,
          "internalType": "address",
          "name": "to",
          "type": "address"
        },
        {
          "indexed": true,
          "internalType": "uint256",
          "name": "tokenId",
          "type": "uint256"
        }
      ],
      "name": "Transfer",
      "type": "event"
    },
    {
      "inputs": [
        {
          "internalType": "address",
          "name": "to",
          "type": "address"
        },
        {
          "internalType": "uint256",
          "name": "tokenId",
          "type": "uint256"
        }
      ],
      "name": "approve",
      "outputs": [],
      "stateMutability": "nonpayable",
      "type": "function"
    },
    {
      "inputs": [
        {
          "internalType": "address",
          "name": "owner",
          "type": "address"
        }
      ],
      "name": "balanceOf",
      "outputs": [
        {
          "internalType": "uint256",
          "name": "",
          "type": "uint256"
        }
      ],
      "stateMutability": "view",
      "type": "function"
    },
    {
      "inputs": [],
      "name": "getAllPosts",
      "outputs": [
        {
          "components": [
            {
              "internalType": "uint256",
              "name": "id",
              "type": "uint256"
            },
            {
              "internalType": "string",
              "name": "hash",
              "type": "string"
            },
            {
              "internalType": "string",
              "name": "ihash",
              "type": "string"
            },
            {
              "internalType": "uint256",
              "name": "tipAmount",
              "type": "uint256"
            },
            {
              "internalType": "address payable",
              "name": "author",
              "type": "address"
            }
          ],
          "internalType": "struct Macpost.Post[]",
          "name": "_posts",
          "type": "tuple[]"
        }
      ],
      "stateMutability": "view",
      "type": "function"
    },
    {
      "inputs": [
        {
          "internalType": "uint256",
          "name": "tokenId",
          "type": "uint256"
        }
      ],
      "name": "getApproved",
      "outputs": [
        {
          "internalType": "address",
          "name": "",
          "type": "address"
        }
      ],
      "stateMutability": "view",
      "type": "function"
    },
    {
      "inputs": [],
      "name": "getMyNfts",
      "outputs": [
        {
          "internalType": "uint256[]",
          "name": "_ids",
          "type": "uint256[]"
        }
      ],
      "stateMutability": "view",
      "type": "function"
    },
    {
      "inputs": [
        {
          "internalType": "address",
          "name": "owner",
          "type": "address"
        },
        {
          "internalType": "address",
          "name": "operator",
          "type": "address"
        }
      ],
      "name": "isApprovedForAll",
      "outputs": [
        {
          "internalType": "bool",
          "name": "",
          "type": "bool"
        }
      ],
      "stateMutability": "view",
      "type": "function"
    },
    {
      "inputs": [
        {
          "internalType": "string",
          "name": "_tokenURI",
          "type": "string"
        }
      ],
      "name": "mint",
      "outputs": [
        {
          "internalType": "uint256",
          "name": "",
          "type": "uint256"
        }
      ],
      "stateMutability": "nonpayable",
      "type": "function"
    },
    {
      "inputs": [],
      "name": "name",
      "outputs": [
        {
          "internalType": "string",
          "name": "",
          "type": "string"
        }
      ],
      "stateMutability": "view",
      "type": "function"
    },
    {
      "inputs": [
        {
          "internalType": "uint256",
          "name": "tokenId",
          "type": "uint256"
        }
      ],
      "name": "ownerOf",
      "outputs": [
        {
          "internalType": "address",
          "name": "",
          "type": "address"
        }
      ],
      "stateMutability": "view",
      "type": "function"
    },
    {
      "inputs": [],
      "name": "postCount",
      "outputs": [
        {
          "internalType": "uint256",
          "name": "",
          "type": "uint256"
        }
      ],
      "stateMutability": "view",
      "type": "function"
    },
    {
      "inputs": [
        {
          "internalType": "uint256",
          "name": "",
          "type": "uint256"
        }
      ],
      "name": "posts",
      "outputs": [
        {
          "internalType": "uint256",
          "name": "id",
          "type": "uint256"
        },
        {
          "internalType": "string",
          "name": "hash",
          "type": "string"
        },
        {
          "internalType": "string",
          "name": "ihash",
          "type": "string"
        },
        {
          "internalType": "uint256",
          "name": "tipAmount",
          "type": "uint256"
        },
        {
          "internalType": "address payable",
          "name": "author",
          "type": "address"
        }
      ],
      "stateMutability": "view",
      "type": "function"
    },
    {
      "inputs": [
        {
          "internalType": "address",
          "name": "",
          "type": "address"
        }
      ],
      "name": "profiles",
      "outputs": [
        {
          "internalType": "uint256",
          "name": "",
          "type": "uint256"
        }
      ],
      "stateMutability": "view",
      "type": "function"
    },
    {
      "inputs": [
        {
          "internalType": "address",
          "name": "from",
          "type": "address"
        },
        {
          "internalType": "address",
          "name": "to",
          "type": "address"
        },
        {
          "internalType": "uint256",
          "name": "tokenId",
          "type": "uint256"
        }
      ],
      "name": "safeTransferFrom",
      "outputs": [],
      "stateMutability": "nonpayable",
      "type": "function"
    },
    {
      "inputs": [
        {
          "internalType": "address",
          "name": "from",
          "type": "address"
        },
        {
          "internalType": "address",
          "name": "to",
          "type": "address"
        },
        {
          "internalType": "uint256",
          "name": "tokenId",
          "type": "uint256"
        },
        {
          "internalType": "bytes",
          "name": "_data",
          "type": "bytes"
        }
      ],
      "name": "safeTransferFrom",
      "outputs": [],
      "stateMutability": "nonpayable",
      "type": "function"
    },
    {
      "inputs": [
        {
          "internalType": "address",
          "name": "operator",
          "type": "address"
        },
        {
          "internalType": "bool",
          "name": "approved",
          "type": "bool"
        }
      ],
      "name": "setApprovalForAll",
      "outputs": [],
      "stateMutability": "nonpayable",
      "type": "function"
    },
    {
      "inputs": [
        {
          "internalType": "uint256",
          "name": "_id",
          "type": "uint256"
        }
      ],
      "name": "setProfile",
      "outputs": [],
      "stateMutability": "nonpayable",
      "type": "function"
    },
    {
      "inputs": [
        {
          "internalType": "bytes4",
          "name": "interfaceId",
          "type": "bytes4"
        }
      ],
      "name": "supportsInterface",
      "outputs": [
        {
          "internalType": "bool",
          "name": "",
          "type": "bool"
        }
      ],
      "stateMutability": "view",
      "type": "function"
    },
    {
      "inputs": [],
      "name": "symbol",
      "outputs": [
        {
          "internalType": "string",
          "name": "",
          "type": "string"
        }
      ],
      "stateMutability": "view",
      "type": "function"
    },
    {
      "inputs": [
        {
          "internalType": "uint256",
          "name": "_id",
          "type": "uint256"
        }
      ],
      "name": "tipPostOwner",
      "outputs": [],
      "stateMutability": "payable",
      "type": "function"
    },
    {
      "inputs": [],
      "name": "tokenCount",
      "outputs": [
        {
          "internalType": "uint256",
          "name": "",
          "type": "uint256"
        }
      ],
      "stateMutability": "view",
      "type": "function"
    },
    {
      "inputs": [
        {
          "internalType": "uint256",
          "name": "tokenId",
          "type": "uint256"
        }
      ],
      "name": "tokenURI",
      "outputs": [
        {
          "internalType": "string",
          "name": "",
          "type": "string"
        }
      ],
      "stateMutability": "view",
      "type": "function"
    },
    {
      "inputs": [
        {
          "internalType": "address",
          "name": "from",
          "type": "address"
        },
        {
          "internalType": "address",
          "name": "to",
          "type": "address"
        },
        {
          "internalType": "uint256",
          "name": "tokenId",
          "type": "uint256"
        }
      ],
      "name": "transferFrom",
      "outputs": [],
      "stateMutability": "nonpayable",
      "type": "function"
    },
    {
      "inputs": [
        {
          "internalType": "string",
          "name": "_postHash",
          "type": "string"
        },
        {
          "internalType": "string",
          "name": "_imgHash",
          "type": "string"
        }
      ],
      "name": "uploadPost",
      "outputs": [],
      "stateMutability": "nonpayable",
      "type": "function"
    }
  ],
  "bytecode": "0x60806040523480156200001157600080fd5b506040518060400160405280600781526020017f4d6163706f7374000000000000000000000000000000000000000000000000008152506040518060400160405280600281526020017f4d50000000000000000000000000000000000000000000000000000000000000815250816000908051906020019062000096929190620000b8565b508060019080519060200190620000af929190620000b8565b505050620001cd565b828054620000c69062000168565b90600052602060002090601f016020900481019282620000ea576000855562000136565b82601f106200010557805160ff191683800117855562000136565b8280016001018555821562000136579182015b828111156200013557825182559160200191906001019062000118565b5b50905062000145919062000149565b5090565b5b80821115620001645760008160009055506001016200014a565b5090565b600060028204905060018216806200018157607f821691505b602082108114156200019857620001976200019e565b5b50919050565b7f4e487b7100000000000000000000000000000000000000000000000000000000600052602260045260246000fd5b61393f80620001dd6000396000f3fe6080604052600436106101405760003560e01c80636352211e116100b6578063b88d4fde1161006f578063b88d4fde14610472578063bbe156271461049b578063c87b56dd146104d8578063d6313c0614610515578063d85d3d2714610531578063e985e9c51461056e57610140565b80636352211e1461035057806370a082311461038d57806385d3cb37146103ca57806395d89b41146103f35780639f181b5e1461041e578063a22cb4651461044957610140565b80630b1e7f83116101085780630b1e7f831461023e5780630cb1c7ee1461027f57806317906c2e146102a857806323b872dd146102d357806330561100146102fc57806342842e0e1461032757610140565b806301ffc9a714610145578063047b07bf1461018257806306fdde03146101ad578063081812fc146101d8578063095ea7b314610215575b600080fd5b34801561015157600080fd5b5061016c6004803603810190610167919061274a565b6105ab565b6040516101799190612dba565b60405180910390f35b34801561018e57600080fd5b5061019761068d565b6040516101a49190612d98565b60405180910390f35b3480156101b957600080fd5b506101c26107dd565b6040516101cf9190612dd5565b60405180910390f35b3480156101e457600080fd5b506101ff60048036038101906101fa9190612849565b61086f565b60405161020c9190612d0f565b60405180910390f35b34801561022157600080fd5b5061023c6004803603810190610237919061270e565b6108f4565b005b34801561024a57600080fd5b5061026560048036038101906102609190612849565b610a0c565b604051610276959493929190613053565b60405180910390f35b34801561028b57600080fd5b506102a660048036038101906102a191906127dd565b610b72565b005b3480156102b457600080fd5b506102bd610ced565b6040516102ca9190612fd7565b60405180910390f35b3480156102df57600080fd5b506102fa60048036038101906102f59190612608565b610cf3565b005b34801561030857600080fd5b50610311610d53565b60405161031e9190612d76565b60405180910390f35b34801561033357600080fd5b5061034e60048036038101906103499190612608565b610ff2565b005b34801561035c57600080fd5b5061037760048036038101906103729190612849565b611012565b6040516103849190612d0f565b60405180910390f35b34801561039957600080fd5b506103b460048036038101906103af91906125a3565b6110c4565b6040516103c19190612fd7565b60405180910390f35b3480156103d657600080fd5b506103f160048036038101906103ec9190612849565b61117c565b005b3480156103ff57600080fd5b50610408611239565b6040516104159190612dd5565b60405180910390f35b34801561042a57600080fd5b506104336112cb565b6040516104409190612fd7565b60405180910390f35b34801561045557600080fd5b50610470600480360381019061046b91906126d2565b6112d1565b005b34801561047e57600080fd5b5061049960048036038101906104949190612657565b6112e7565b005b3480156104a757600080fd5b506104c260048036038101906104bd91906125a3565b611349565b6040516104cf9190612fd7565b60405180910390f35b3480156104e457600080fd5b506104ff60048036038101906104fa9190612849565b611361565b60405161050c9190612dd5565b60405180910390f35b61052f600480360381019061052a9190612849565b611454565b005b34801561053d57600080fd5b506105586004803603810190610553919061279c565b6117bf565b6040516105659190612fd7565b60405180910390f35b34801561057a57600080fd5b50610595600480360381019061059091906125cc565b611806565b6040516105a29190612dba565b60405180910390f35b60007f80ac58cd000000000000000000000000000000000000000000000000000000007bffffffffffffffffffffffffffffffffffffffffffffffffffffffff1916827bffffffffffffffffffffffffffffffffffffffffffffffffffffffff1916148061067657507f5b5e139f000000000000000000000000000000000000000000000000000000007bffffffffffffffffffffffffffffffffffffffffffffffffffffffff1916827bffffffffffffffffffffffffffffffffffffffffffffffffffffffff1916145b8061068657506106858261189a565b5b9050919050565b6060610698336110c4565b67ffffffffffffffff8111156106d7577f4e487b7100000000000000000000000000000000000000000000000000000000600052604160045260246000fd5b6040519080825280602002602001820160405280156107055781602001602082028036833780820191505090505b509050600080600654905060005b818110156107d7573373ffffffffffffffffffffffffffffffffffffffff1661074760018361074291906131f6565b611012565b73ffffffffffffffffffffffffffffffffffffffff1614156107c45760018161077091906131f6565b8484815181106107a9577f4e487b7100000000000000000000000000000000000000000000000000000000600052603260045260246000fd5b60200260200101818152505082806107c0906133bd565b9350505b80806107cf906133bd565b915050610713565b50505090565b6060600080546107ec9061335a565b80601f01602080910402602001604051908101604052809291908181526020018280546108189061335a565b80156108655780601f1061083a57610100808354040283529160200191610865565b820191906000526020600020905b81548152906001019060200180831161084857829003601f168201915b5050505050905090565b600061087a82611904565b6108b9576040517f08c379a00000000000000000000000000000000000000000000000000000000081526004016108b090612f57565b60405180910390fd5b6004600083815260200190815260200160002060009054906101000a900473ffffffffffffffffffffffffffffffffffffffff169050919050565b60006108ff82611012565b90508073ffffffffffffffffffffffffffffffffffffffff168373ffffffffffffffffffffffffffffffffffffffff161415610970576040517f08c379a000000000000000000000000000000000000000000000000000000000815260040161096790612f77565b60405180910390fd5b8073ffffffffffffffffffffffffffffffffffffffff1661098f611970565b73ffffffffffffffffffffffffffffffffffffffff1614806109be57506109bd816109b8611970565b611806565b5b6109fd576040517f08c379a00000000000000000000000000000000000000000000000000000000081526004016109f490612ed7565b60405180910390fd5b610a078383611978565b505050565b6008602052806000526040600020600091509050806000015490806001018054610a359061335a565b80601f0160208091040260200160405190810160405280929190818152602001828054610a619061335a565b8015610aae5780601f10610a8357610100808354040283529160200191610aae565b820191906000526020600020905b815481529060010190602001808311610a9157829003601f168201915b505050505090806002018054610ac39061335a565b80601f0160208091040260200160405190810160405280929190818152602001828054610aef9061335a565b8015610b3c5780601f10610b1157610100808354040283529160200191610b3c565b820191906000526020600020905b815481529060010190602001808311610b1f57829003601f168201915b5050505050908060030154908060040160009054906101000a900473ffffffffffffffffffffffffffffffffffffffff16905085565b6000610b7d336110c4565b11610b8757600080fd5b60008251118015610b99575060008151115b610ba257600080fd5b60076000815480929190610bb5906133bd565b91905055506040518060a001604052806007548152602001838152602001828152602001600081526020013373ffffffffffffffffffffffffffffffffffffffff16815250600860006007548152602001908152602001600020600082015181600001556020820151816001019080519060200190610c35929190612382565b506040820151816002019080519060200190610c52929190612382565b506060820151816003015560808201518160040160006101000a81548173ffffffffffffffffffffffffffffffffffffffff021916908373ffffffffffffffffffffffffffffffffffffffff1602179055509050507f0e2769bd597cd7048e25b64a846e1254d4cb84b13c4aba4ad4a891baf7a399c66007548383600033604051610ce1959493929190612ff2565b60405180910390a15050565b60075481565b610d04610cfe611970565b82611a31565b610d43576040517f08c379a0000000000000000000000000000000000000000000000000000000008152600401610d3a90612f97565b60405180910390fd5b610d4e838383611b0f565b505050565b606060075467ffffffffffffffff811115610d97577f4e487b7100000000000000000000000000000000000000000000000000000000600052604160045260246000fd5b604051908082528060200260200182016040528015610dd057816020015b610dbd612408565b815260200190600190039081610db55790505b50905060005b8151811015610fee5760086000600183610df091906131f6565b81526020019081526020016000206040518060a001604052908160008201548152602001600182018054610e239061335a565b80601f0160208091040260200160405190810160405280929190818152602001828054610e4f9061335a565b8015610e9c5780601f10610e7157610100808354040283529160200191610e9c565b820191906000526020600020905b815481529060010190602001808311610e7f57829003601f168201915b50505050508152602001600282018054610eb59061335a565b80601f0160208091040260200160405190810160405280929190818152602001828054610ee19061335a565b8015610f2e5780601f10610f0357610100808354040283529160200191610f2e565b820191906000526020600020905b815481529060010190602001808311610f1157829003601f168201915b50505050508152602001600382015481526020016004820160009054906101000a900473ffffffffffffffffffffffffffffffffffffffff1673ffffffffffffffffffffffffffffffffffffffff1673ffffffffffffffffffffffffffffffffffffffff1681525050828281518110610fd0577f4e487b7100000000000000000000000000000000000000000000000000000000600052603260045260246000fd5b60200260200101819052508080610fe6906133bd565b915050610dd6565b5090565b61100d838383604051806020016040528060008152506112e7565b505050565b6000806002600084815260200190815260200160002060009054906101000a900473ffffffffffffffffffffffffffffffffffffffff169050600073ffffffffffffffffffffffffffffffffffffffff168173ffffffffffffffffffffffffffffffffffffffff1614156110bb576040517f08c379a00000000000000000000000000000000000000000000000000000000081526004016110b290612f17565b60405180910390fd5b80915050919050565b60008073ffffffffffffffffffffffffffffffffffffffff168273ffffffffffffffffffffffffffffffffffffffff161415611135576040517f08c379a000000000000000000000000000000000000000000000000000000000815260040161112c90612ef7565b60405180910390fd5b600360008373ffffffffffffffffffffffffffffffffffffffff1673ffffffffffffffffffffffffffffffffffffffff168152602001908152602001600020549050919050565b3373ffffffffffffffffffffffffffffffffffffffff1661119c82611012565b73ffffffffffffffffffffffffffffffffffffffff16146111f2576040517f08c379a00000000000000000000000000000000000000000000000000000000081526004016111e990612eb7565b60405180910390fd5b80600b60003373ffffffffffffffffffffffffffffffffffffffff1673ffffffffffffffffffffffffffffffffffffffff1681526020019081526020016000208190555050565b6060600180546112489061335a565b80601f01602080910402602001604051908101604052809291908181526020018280546112749061335a565b80156112c15780601f10611296576101008083540402835291602001916112c1565b820191906000526020600020905b8154815290600101906020018083116112a457829003601f168201915b5050505050905090565b60065481565b6112e36112dc611970565b8383611d76565b5050565b6112f86112f2611970565b83611a31565b611337576040517f08c379a000000000000000000000000000000000000000000000000000000000815260040161132e90612f97565b60405180910390fd5b61134384848484611ee3565b50505050565b600b6020528060005260406000206000915090505481565b606061136c82611904565b6113ab576040517f08c379a00000000000000000000000000000000000000000000000000000000081526004016113a290612fb7565b60405180910390fd5b6000600a600084815260200190815260200160002080546113cb9061335a565b80601f01602080910402602001604051908101604052809291908181526020018280546113f79061335a565b80156114445780601f1061141957610100808354040283529160200191611444565b820191906000526020600020905b81548152906001019060200180831161142757829003601f168201915b5050505050905080915050919050565b60008111801561146657506007548111155b61146f57600080fd5b6000600860008381526020019081526020016000206040518060a0016040529081600082015481526020016001820180546114a99061335a565b80601f01602080910402602001604051908101604052809291908181526020018280546114d59061335a565b80156115225780601f106114f757610100808354040283529160200191611522565b820191906000526020600020905b81548152906001019060200180831161150557829003601f168201915b5050505050815260200160028201805461153b9061335a565b80601f01602080910402602001604051908101604052809291908181526020018280546115679061335a565b80156115b45780601f10611589576101008083540402835291602001916115b4565b820191906000526020600020905b81548152906001019060200180831161159757829003601f168201915b50505050508152602001600382015481526020016004820160009054906101000a900473ffffffffffffffffffffffffffffffffffffffff1673ffffffffffffffffffffffffffffffffffffffff1673ffffffffffffffffffffffffffffffffffffffff168152505090503373ffffffffffffffffffffffffffffffffffffffff16816080015173ffffffffffffffffffffffffffffffffffffffff16141561165c57600080fd5b806080015173ffffffffffffffffffffffffffffffffffffffff166108fc349081150290604051600060405180830381858888f193505050501580156116a6573d6000803e3d6000fd5b5034816060018181516116b991906131f6565b9150818152505080600860008481526020019081526020016000206000820151816000015560208201518160010190805190602001906116fa929190612382565b506040820151816002019080519060200190611717929190612382565b506060820151816003015560808201518160040160006101000a81548173ffffffffffffffffffffffffffffffffffffffff021916908373ffffffffffffffffffffffffffffffffffffffff1602179055509050507f8cdd31fc6bd9c789638fdbd3ed5c788b27fa5d287f300e92f3c436ba03527db38282602001518360400151846060015185608001516040516117b3959493929190613053565b60405180910390a15050565b6000600660008154809291906117d4906133bd565b91905055506117e533600654611f3f565b6117f160065483611f5d565b6117fc60065461117c565b6006549050919050565b6000600560008473ffffffffffffffffffffffffffffffffffffffff1673ffffffffffffffffffffffffffffffffffffffff16815260200190815260200160002060008373ffffffffffffffffffffffffffffffffffffffff1673ffffffffffffffffffffffffffffffffffffffff16815260200190815260200160002060009054906101000a900460ff16905092915050565b60007f01ffc9a7000000000000000000000000000000000000000000000000000000007bffffffffffffffffffffffffffffffffffffffffffffffffffffffff1916827bffffffffffffffffffffffffffffffffffffffffffffffffffffffff1916149050919050565b60008073ffffffffffffffffffffffffffffffffffffffff166002600084815260200190815260200160002060009054906101000a900473ffffffffffffffffffffffffffffffffffffffff1673ffffffffffffffffffffffffffffffffffffffff1614159050919050565b600033905090565b816004600083815260200190815260200160002060006101000a81548173ffffffffffffffffffffffffffffffffffffffff021916908373ffffffffffffffffffffffffffffffffffffffff160217905550808273ffffffffffffffffffffffffffffffffffffffff166119eb83611012565b73ffffffffffffffffffffffffffffffffffffffff167f8c5be1e5ebec7d5bd14f71427d1e84f3dd0314c0f7b2291e5b200ac8c7c3b92560405160405180910390a45050565b6000611a3c82611904565b611a7b576040517f08c379a0000000000000000000000000000000000000000000000000000000008152600401611a7290612e97565b60405180910390fd5b6000611a8683611012565b90508073ffffffffffffffffffffffffffffffffffffffff168473ffffffffffffffffffffffffffffffffffffffff161480611af557508373ffffffffffffffffffffffffffffffffffffffff16611add8461086f565b73ffffffffffffffffffffffffffffffffffffffff16145b80611b065750611b058185611806565b5b91505092915050565b8273ffffffffffffffffffffffffffffffffffffffff16611b2f82611012565b73ffffffffffffffffffffffffffffffffffffffff1614611b85576040517f08c379a0000000000000000000000000000000000000000000000000000000008152600401611b7c90612e17565b60405180910390fd5b600073ffffffffffffffffffffffffffffffffffffffff168273ffffffffffffffffffffffffffffffffffffffff161415611bf5576040517f08c379a0000000000000000000000000000000000000000000000000000000008152600401611bec90612e57565b60405180910390fd5b611c00838383611f89565b611c0b600082611978565b6001600360008573ffffffffffffffffffffffffffffffffffffffff1673ffffffffffffffffffffffffffffffffffffffff1681526020019081526020016000206000828254611c5b919061324c565b925050819055506001600360008473ffffffffffffffffffffffffffffffffffffffff1673ffffffffffffffffffffffffffffffffffffffff1681526020019081526020016000206000828254611cb291906131f6565b92505081905550816002600083815260200190815260200160002060006101000a81548173ffffffffffffffffffffffffffffffffffffffff021916908373ffffffffffffffffffffffffffffffffffffffff160217905550808273ffffffffffffffffffffffffffffffffffffffff168473ffffffffffffffffffffffffffffffffffffffff167fddf252ad1be2c89b69c2b068fc378daa952ba7f163c4a11628f55a4df523b3ef60405160405180910390a4611d71838383611f8e565b505050565b8173ffffffffffffffffffffffffffffffffffffffff168373ffffffffffffffffffffffffffffffffffffffff161415611de5576040517f08c379a0000000000000000000000000000000000000000000000000000000008152600401611ddc90612e77565b60405180910390fd5b80600560008573ffffffffffffffffffffffffffffffffffffffff1673ffffffffffffffffffffffffffffffffffffffff16815260200190815260200160002060008473ffffffffffffffffffffffffffffffffffffffff1673ffffffffffffffffffffffffffffffffffffffff16815260200190815260200160002060006101000a81548160ff0219169083151502179055508173ffffffffffffffffffffffffffffffffffffffff168373ffffffffffffffffffffffffffffffffffffffff167f17307eab39ab6107e8899845ad3d59bd9653f200f220920489ca2b5937696c3183604051611ed69190612dba565b60405180910390a3505050565b611eee848484611b0f565b611efa84848484611f93565b611f39576040517f08c379a0000000000000000000000000000000000000000000000000000000008152600401611f3090612df7565b60405180910390fd5b50505050565b611f5982826040518060200160405280600081525061212a565b5050565b80600a60008481526020019081526020016000209080519060200190611f84929190612382565b505050565b505050565b505050565b6000611fb48473ffffffffffffffffffffffffffffffffffffffff16612185565b1561211d578373ffffffffffffffffffffffffffffffffffffffff1663150b7a02611fdd611970565b8786866040518563ffffffff1660e01b8152600401611fff9493929190612d2a565b602060405180830381600087803b15801561201957600080fd5b505af192505050801561204a57506040513d601f19601f820116820180604052508101906120479190612773565b60015b6120cd573d806000811461207a576040519150601f19603f3d011682016040523d82523d6000602084013e61207f565b606091505b506000815114156120c5576040517f08c379a00000000000000000000000000000000000000000000000000000000081526004016120bc90612df7565b60405180910390fd5b805181602001fd5b63150b7a0260e01b7bffffffffffffffffffffffffffffffffffffffffffffffffffffffff1916817bffffffffffffffffffffffffffffffffffffffffffffffffffffffff191614915050612122565b600190505b949350505050565b61213483836121a8565b6121416000848484611f93565b612180576040517f08c379a000000000000000000000000000000000000000000000000000000000815260040161217790612df7565b60405180910390fd5b505050565b6000808273ffffffffffffffffffffffffffffffffffffffff163b119050919050565b600073ffffffffffffffffffffffffffffffffffffffff168273ffffffffffffffffffffffffffffffffffffffff161415612218576040517f08c379a000000000000000000000000000000000000000000000000000000000815260040161220f90612f37565b60405180910390fd5b61222181611904565b15612261576040517f08c379a000000000000000000000000000000000000000000000000000000000815260040161225890612e37565b60405180910390fd5b61226d60008383611f89565b6001600360008473ffffffffffffffffffffffffffffffffffffffff1673ffffffffffffffffffffffffffffffffffffffff16815260200190815260200160002060008282546122bd91906131f6565b92505081905550816002600083815260200190815260200160002060006101000a81548173ffffffffffffffffffffffffffffffffffffffff021916908373ffffffffffffffffffffffffffffffffffffffff160217905550808273ffffffffffffffffffffffffffffffffffffffff16600073ffffffffffffffffffffffffffffffffffffffff167fddf252ad1be2c89b69c2b068fc378daa952ba7f163c4a11628f55a4df523b3ef60405160405180910390a461237e60008383611f8e565b5050565b82805461238e9061335a565b90600052602060002090601f0160209004810192826123b057600085556123f7565b82601f106123c957805160ff19168380011785556123f7565b828001600101855582156123f7579182015b828111156123f65782518255916020019190600101906123db565b5b509050612404919061244d565b5090565b6040518060a0016040528060008152602001606081526020016060815260200160008152602001600073ffffffffffffffffffffffffffffffffffffffff1681525090565b5b8082111561246657600081600090555060010161244e565b5090565b600061247d612478846130d9565b6130b4565b90508281526020810184848401111561249557600080fd5b6124a0848285613318565b509392505050565b60006124bb6124b68461310a565b6130b4565b9050828152602081018484840111156124d357600080fd5b6124de848285613318565b509392505050565b6000813590506124f5816138ad565b92915050565b60008135905061250a816138c4565b92915050565b60008135905061251f816138db565b92915050565b600081519050612534816138db565b92915050565b600082601f83011261254b57600080fd5b813561255b84826020860161246a565b91505092915050565b600082601f83011261257557600080fd5b81356125858482602086016124a8565b91505092915050565b60008135905061259d816138f2565b92915050565b6000602082840312156125b557600080fd5b60006125c3848285016124e6565b91505092915050565b600080604083850312156125df57600080fd5b60006125ed858286016124e6565b92505060206125fe858286016124e6565b9150509250929050565b60008060006060848603121561261d57600080fd5b600061262b868287016124e6565b935050602061263c868287016124e6565b925050604061264d8682870161258e565b9150509250925092565b6000806000806080858703121561266d57600080fd5b600061267b878288016124e6565b945050602061268c878288016124e6565b935050604061269d8782880161258e565b925050606085013567ffffffffffffffff8111156126ba57600080fd5b6126c68782880161253a565b91505092959194509250565b600080604083850312156126e557600080fd5b60006126f3858286016124e6565b9250506020612704858286016124fb565b9150509250929050565b6000806040838503121561272157600080fd5b600061272f858286016124e6565b92505060206127408582860161258e565b9150509250929050565b60006020828403121561275c57600080fd5b600061276a84828501612510565b91505092915050565b60006020828403121561278557600080fd5b600061279384828501612525565b91505092915050565b6000602082840312156127ae57600080fd5b600082013567ffffffffffffffff8111156127c857600080fd5b6127d484828501612564565b91505092915050565b600080604083850312156127f057600080fd5b600083013567ffffffffffffffff81111561280a57600080fd5b61281685828601612564565b925050602083013567ffffffffffffffff81111561283357600080fd5b61283f85828601612564565b9150509250929050565b60006020828403121561285b57600080fd5b60006128698482850161258e565b91505092915050565b600061287e8383612c74565b905092915050565b60006128928383612cf1565b60208301905092915050565b6128a781613292565b82525050565b6128b681613292565b82525050565b6128c581613280565b82525050565b60006128d68261315b565b6128e081856131a1565b9350836020820285016128f28561313b565b8060005b8581101561292e578484038952815161290f8582612872565b945061291a83613187565b925060208a019950506001810190506128f6565b50829750879550505050505092915050565b600061294b82613166565b61295581856131b2565b93506129608361314b565b8060005b838110156129915781516129788882612886565b975061298383613194565b925050600181019050612964565b5085935050505092915050565b6129a7816132a4565b82525050565b60006129b882613171565b6129c281856131c3565b93506129d2818560208601613327565b6129db81613493565b840191505092915050565b6129ef81613306565b82525050565b6000612a008261317c565b612a0a81856131d4565b9350612a1a818560208601613327565b612a2381613493565b840191505092915050565b6000612a398261317c565b612a4381856131e5565b9350612a53818560208601613327565b612a5c81613493565b840191505092915050565b6000612a746032836131e5565b9150612a7f826134a4565b604082019050919050565b6000612a976025836131e5565b9150612aa2826134f3565b604082019050919050565b6000612aba601c836131e5565b9150612ac582613542565b602082019050919050565b6000612add6024836131e5565b9150612ae88261356b565b604082019050919050565b6000612b006019836131e5565b9150612b0b826135ba565b602082019050919050565b6000612b23602c836131e5565b9150612b2e826135e3565b604082019050919050565b6000612b466024836131e5565b9150612b5182613632565b604082019050919050565b6000612b696038836131e5565b9150612b7482613681565b604082019050919050565b6000612b8c602a836131e5565b9150612b97826136d0565b604082019050919050565b6000612baf6029836131e5565b9150612bba8261371f565b604082019050919050565b6000612bd26020836131e5565b9150612bdd8261376e565b602082019050919050565b6000612bf5602c836131e5565b9150612c0082613797565b604082019050919050565b6000612c186021836131e5565b9150612c23826137e6565b604082019050919050565b6000612c3b6031836131e5565b9150612c4682613835565b604082019050919050565b6000612c5e6018836131e5565b9150612c6982613884565b602082019050919050565b600060a083016000830151612c8c6000860182612cf1565b5060208301518482036020860152612ca482826129f5565b91505060408301518482036040860152612cbe82826129f5565b9150506060830151612cd36060860182612cf1565b506080830151612ce6608086018261289e565b508091505092915050565b612cfa816132fc565b82525050565b612d09816132fc565b82525050565b6000602082019050612d2460008301846128bc565b92915050565b6000608082019050612d3f60008301876128bc565b612d4c60208301866128bc565b612d596040830185612d00565b8181036060830152612d6b81846129ad565b905095945050505050565b60006020820190508181036000830152612d9081846128cb565b905092915050565b60006020820190508181036000830152612db28184612940565b905092915050565b6000602082019050612dcf600083018461299e565b92915050565b60006020820190508181036000830152612def8184612a2e565b905092915050565b60006020820190508181036000830152612e1081612a67565b9050919050565b60006020820190508181036000830152612e3081612a8a565b9050919050565b60006020820190508181036000830152612e5081612aad565b9050919050565b60006020820190508181036000830152612e7081612ad0565b9050919050565b60006020820190508181036000830152612e9081612af3565b9050919050565b60006020820190508181036000830152612eb081612b16565b9050919050565b60006020820190508181036000830152612ed081612b39565b9050919050565b60006020820190508181036000830152612ef081612b5c565b9050919050565b60006020820190508181036000830152612f1081612b7f565b9050919050565b60006020820190508181036000830152612f3081612ba2565b9050919050565b60006020820190508181036000830152612f5081612bc5565b9050919050565b60006020820190508181036000830152612f7081612be8565b9050919050565b60006020820190508181036000830152612f9081612c0b565b9050919050565b60006020820190508181036000830152612fb081612c2e565b9050919050565b60006020820190508181036000830152612fd081612c51565b9050919050565b6000602082019050612fec6000830184612d00565b92915050565b600060a0820190506130076000830188612d00565b81810360208301526130198187612a2e565b9050818103604083015261302d8186612a2e565b905061303c60608301856129e6565b61304960808301846128ad565b9695505050505050565b600060a0820190506130686000830188612d00565b818103602083015261307a8187612a2e565b9050818103604083015261308e8186612a2e565b905061309d6060830185612d00565b6130aa60808301846128ad565b9695505050505050565b60006130be6130cf565b90506130ca828261338c565b919050565b6000604051905090565b600067ffffffffffffffff8211156130f4576130f3613464565b5b6130fd82613493565b9050602081019050919050565b600067ffffffffffffffff82111561312557613124613464565b5b61312e82613493565b9050602081019050919050565b6000819050602082019050919050565b6000819050602082019050919050565b600081519050919050565b600081519050919050565b600081519050919050565b600081519050919050565b6000602082019050919050565b6000602082019050919050565b600082825260208201905092915050565b600082825260208201905092915050565b600082825260208201905092915050565b600082825260208201905092915050565b600082825260208201905092915050565b6000613201826132fc565b915061320c836132fc565b9250827fffffffffffffffffffffffffffffffffffffffffffffffffffffffffffffffff0382111561324157613240613406565b5b828201905092915050565b6000613257826132fc565b9150613262836132fc565b92508282101561327557613274613406565b5b828203905092915050565b600061328b826132dc565b9050919050565b600061329d826132dc565b9050919050565b60008115159050919050565b60007fffffffff0000000000000000000000000000000000000000000000000000000082169050919050565b600073ffffffffffffffffffffffffffffffffffffffff82169050919050565b6000819050919050565b6000613311826132fc565b9050919050565b82818337600083830152505050565b60005b8381101561334557808201518184015260208101905061332a565b83811115613354576000848401525b50505050565b6000600282049050600182168061337257607f821691505b6020821081141561338657613385613435565b5b50919050565b61339582613493565b810181811067ffffffffffffffff821117156133b4576133b3613464565b5b80604052505050565b60006133c8826132fc565b91507fffffffffffffffffffffffffffffffffffffffffffffffffffffffffffffffff8214156133fb576133fa613406565b5b600182019050919050565b7f4e487b7100000000000000000000000000000000000000000000000000000000600052601160045260246000fd5b7f4e487b7100000000000000000000000000000000000000000000000000000000600052602260045260246000fd5b7f4e487b7100000000000000000000000000000000000000000000000000000000600052604160045260246000fd5b6000601f19601f8301169050919050565b7f4552433732313a207472616e7366657220746f206e6f6e20455243373231526560008201527f63656976657220696d706c656d656e7465720000000000000000000000000000602082015250565b7f4552433732313a207472616e736665722066726f6d20696e636f72726563742060008201527f6f776e6572000000000000000000000000000000000000000000000000000000602082015250565b7f4552433732313a20746f6b656e20616c7265616479206d696e74656400000000600082015250565b7f4552433732313a207472616e7366657220746f20746865207a65726f2061646460008201527f7265737300000000000000000000000000000000000000000000000000000000602082015250565b7f4552433732313a20617070726f766520746f2063616c6c657200000000000000600082015250565b7f4552433732313a206f70657261746f7220717565727920666f72206e6f6e657860008201527f697374656e7420746f6b656e0000000000000000000000000000000000000000602082015250565b7f4d757374206f776e20616e204e465420746f2073656c6563742061732070726f60008201527f66696c6500000000000000000000000000000000000000000000000000000000602082015250565b7f4552433732313a20617070726f76652063616c6c6572206973206e6f74206f7760008201527f6e6572206e6f7220617070726f76656420666f7220616c6c0000000000000000602082015250565b7f4552433732313a2062616c616e636520717565727920666f7220746865207a6560008201527f726f206164647265737300000000000000000000000000000000000000000000602082015250565b7f4552433732313a206f776e657220717565727920666f72206e6f6e657869737460008201527f656e7420746f6b656e0000000000000000000000000000000000000000000000602082015250565b7f4552433732313a206d696e7420746f20746865207a65726f2061646472657373600082015250565b7f4552433732313a20617070726f76656420717565727920666f72206e6f6e657860008201527f697374656e7420746f6b656e0000000000000000000000000000000000000000602082015250565b7f4552433732313a20617070726f76616c20746f2063757272656e74206f776e6560008201527f7200000000000000000000000000000000000000000000000000000000000000602082015250565b7f4552433732313a207472616e736665722063616c6c6572206973206e6f74206f60008201527f776e6572206e6f7220617070726f766564000000000000000000000000000000602082015250565b7f555249206e6f74206578697374206f6e20746861742049440000000000000000600082015250565b6138b681613280565b81146138c157600080fd5b50565b6138cd816132a4565b81146138d857600080fd5b50565b6138e4816132b0565b81146138ef57600080fd5b50565b6138fb816132fc565b811461390657600080fd5b5056fea2646970667358221220a13810eb85c4ff876f3359ffe9d4af2c07a451527f99eab925591152698c2d9664736f6c63430008040033",
  "linkReferences": {},
  "deployedLinkReferences": {}
}